{
  "_format": "hh-sol-artifact-1",
  "contractName": "Counter",
  "sourceName": "contracts/Counter.sol",
  "abi": [
    {
      "inputs": [],
      "name": "increment",
      "outputs": [],
      "stateMutability": "nonpayable",
      "type": "function"
    },
    {
      "inputs": [],
      "name": "retrieve",
      "outputs": [
        {
          "internalType": "uint256",
          "name": "",
          "type": "uint256"
        }
      ],
      "stateMutability": "view",
      "type": "function"
    }
  ],
  "bytecode": "0x60806040526000805534801561001457600080fd5b50610172806100246000396000f3fe608060405234801561001057600080fd5b50600436106100365760003560e01c80632e64cec11461003b578063d09de08a14610059575b600080fd5b610043610063565b604051610050919061009c565b60405180910390f35b61006161006c565b005b60008054905090565b600160005461007b91906100e6565b600081905550565b6000819050919050565b61009681610083565b82525050565b60006020820190506100b1600083018461008d565b92915050565b7f4e487b7100000000000000000000000000000000000000000000000000000000600052601160045260246000fd5b60006100f182610083565b91506100fc83610083565b9250827fffffffffffffffffffffffffffffffffffffffffffffffffffffffffffffffff03821115610131576101306100b7565b5b82820190509291505056fea2646970667358221220181b5c3b477bc12b6468474f9023917e3f698dff177c5ac811646b1e1ac30fa064736f6c63430008090033",
  "linkReferences": {},
  "deployedLinkReferences": {}
}